:020000040800F2
:10000000F8180020A10100080D2100083D2000087B
:1000100000000000000000000000000000000000E0
:100020000000000000000000000000001D24000887
:100030000000000000000000112100081F2400083B
:10004000B3010008B3010008B3010008B3010008C0
:10005000B3010008B3010008B3010008B3010008B0
:10006000B3010008B3010008B3010008B3010008A0
:10007000B3010008B3010008B3010008B301000890
:10008000B3010008B3010008B3010008B301000880
:10009000B3010008A9240008B9240008B30100082E
:1000A000B3010008B3010008B3010008B301000860
:1000B000B3010008B3010008B301000800F002F822
:1000C00000F042F80CA030C8083824182D18A246B9
:1000D000671EAB4654465D46AC4201D100F034F891
:1000E0007E460F3E0FCCB6460126334200D0FB1AA7
:1000F000A246AB4633431847A82A0000C82A00008E
:10010000103A02D378C878C1FAD8520701D330C860
:1001100030C101D504680C60704700000023002442
:1001200000250026103A01D378C1FBD8520700D32E
:1001300030C100D50B6070471FB50098019900F0E1
:10014000AAF91FBD10B510BD00F025FA1146FFF742
:10015000F3FF02F0C5FC00F03DFA03B4FFF7F2FF35
:1001600003BC00F06DFA000070B505460C4616465B
:1001700002E00FCC0FC5103E102EFAD2082E02D38B
:1001800003CC03C5083E042E07D301CC01C5361F9E
:1001900003E021782970641C6D1C761EF9D270BDB5
:1001A0000748804707480047FEE7FEE7FEE7FEE70F
:1001B000FEE7FEE704480549054A064B7047000084
:1001C000A7240008BD000008F8050020F81800204A
:1001D000F8140020F814002070B5064600F03EF92F
:1001E000056830460B30C408E400B44201D8002052
:1001F00070BD68682A46002818D00168A14211D352
:100200000B46214608318B4208D3436801194B60E5
:1002100003681B1B0B605160046001E04168516082
:10022000001D70BD024640680028E6D121462846E0
:1002300000F01CF90028DCD170BDF8B5042A2CD3DD
:10024000830712D00B78491C0370401C521E830791
:100250000BD00B78491C0370401C521E830704D03E
:100260000B78491C0370401C521E8B079B0F05D056
:10027000C91ADF002023DE1B08C90AE0FFF774FF5C
:10028000F8BD1D4608C9FD401C46B4402C4310C0B3
:10029000121F042AF5D2F308C91A521EF0D40B78A3
:1002A000491C0370401C521EEAD40B78491C037091
:1002B000401C012AE4D409780170F8BD01E004C0B3
:1002C000091F0429FBD28B0701D50280801CC907B6
:1002D00000D00270704700290BD0C30702D0027013
:1002E000401C491E022904D3830702D50280801CCA
:1002F000891EE3E70022EEE70022DFE70022030980
:100300008B422CD3030A8B4211D300239C464EE030
:1003100003460B433CD4002243088B4231D30309EC
:100320008B421CD3030A8B4201D394463FE0C3099E
:100330008B4201D3CB01C01A524183098B4201D3B6
:100340008B01C01A524143098B4201D34B01C01AA1
:10035000524103098B4201D30B01C01A5241C30819
:100360008B4201D3CB00C01A524183088B4201D388
:100370008B00C01A524143088B4201D34B00C01A74
:100380005241411A00D201465241104670475DE089
:10039000CA0F00D04942031000D34042534000220C
:1003A0009C4603098B422DD3030A8B4212D3FC22B5
:1003B000890112BA030A8B420CD3890192118B4234
:1003C00008D3890192118B4204D389013AD092114A
:1003D00000E08909C3098B4201D3CB01C01A524105
:1003E00083098B4201D38B01C01A524143098B42CE
:1003F00001D34B01C01A524103098B4201D30B01B7
:10040000C01A5241C3088B4201D3CB00C01A5241DB
:1004100083088B4201D38B00C01A5241D9D24308C2
:100420008B4201D34B00C01A5241411A00D20146FF
:10043000634652415B10104601D34042002B00D569
:100440004942704763465B1000D3404201B500202B
:10045000C046C04602BD70477047704700487047AD
:100460009C050020704770477047704738B50446B8
:100470000A4600206946C046C046002805D002460C
:100480002046009900F066F8012038BD10B5012023
:1004900000F07AF810BDF8B5C046C0460546002009
:1004A0000C461020C0460646A819A0420DD9324677
:1004B00069460020C046C046070001D100F064F83C
:1004C0000098A04200D00546C419FFF7C7FFF61DEB
:1004D00007460560F008C0004619284600F008F8F5
:1004E000B44204D031463868A21B00F033F8F8BD9E
:1004F000002101604160806070471020704770B536
:100500000446051FFFF7AAFF0068002C1AD04468B4
:1005100001E020466468002C01D0AC42F9D30168A8
:100520000A18AA4204D12A6805468918016000E029
:10053000456028684119A14205D161686960216858
:100540004018286070BD6C6070BD000000487047A6
:100550009405002010B50346406801E0034640685A
:10056000002801D08842F9D31868C3188B4206D0FE
:10057000CB1CD808C000001D411A521A0146081DA4
:100580000A60FFF7BCFF10BD10B500F031F800F0B5
:1005900029F810BD70477546FFF7D8FFAE46050035
:1005A00069465346C008C000854618B020B5FFF71D
:1005B00001FE60BC00274908B6460026C0C5C0C57C
:1005C000C0C5C0C5C0C5C0C5C0C5C0C5403D490047
:1005D0008D46704710B50446C046C0462046FFF71A
:1005E000BCFD10BD10B5002801D000F029F810BDE9
:1005F00010B5012805D0002103A000F027F8012044
:1006000010BD09A1F8E7000053494752544D454D2C
:100610003A204F7574206F662068656170206D65A3
:100620006D6F7279000000003A2048656170206D9E
:10063000656D6F727920636F727275707465640096
:1006400001491820ABBEFEE72600020070B5054642
:100650000C460A2000E06D1C00F012F8002D06D0B8
:1006600028780028F7D102E0641C00F009F8002C7B
:1006700002D020780028F7D10A2000F001F870BDE0
:1006800008B5694608700320ABBE08BD7FB50024DD
:1006900000250020009001900290039069460948CF
:1006A00002F0ECF9002800DC7FBD00240098C000B7
:1006B000000CFF382838002801D100BF00BF00BF60
:1006C00000BFF1E71000002072B600BFFEE7000097
:1006D00010B51E4A1E4C0368A34202D135231B01EC
:1006E000D2180264036880331B681F242404A343C8
:1006F000848E2404234304688034236013467033BB
:100700004364036880331B680F242406A343048FCB
:10071000240623430468803423601346B033836483
:10072000D833C36413235B01D41804654F23DB0063
:10073000D4184465114602E000230B60091D3523DF
:100740001B01D3189942F7D310BD000000B400403C
:100750000068004070B5034614465C20C55CFF206D
:1007600081300840002800D000BF012D01D0022DAB
:100770007ED11868826D4807400F002803D0D0074B
:10078000C00F002834D038200840002803D00220B1
:10079000104000282CD0FF20C1300840002803D092
:1007A00004201040002823D00F20400208400028D9
:1007B00003D00820104000281AD00720400308402A
:1007C000002803D010201040002811D0032000047E
:1007D0000840002803D020201040002808D03F20E7
:1007E00080040840002809D040201040002805D18E
:1007F0001868C06D012630431E68F0654807400F39
:10080000002803D0D007C00F002836D13820084078
:10081000002803D00220104000282ED1FF20C13034
:100820000840002803D004201040002825D10F20C4
:1008300040020840002803D00820104000281CD1A6
:10084000072040030840002803D010201040002853
:1008500013D1032000040840002803D020201040BA
:1008600000280AD13F208004084000280BD000E077
:1008700027E040201040002805D01868C06D0226EF
:1008800030431E68F06580200840002806D01868B4
:100890008030C06D20431E688036F065FF20013037
:1008A0000840002806D018688030006E20431E687B
:1008B000803630661868406D08431E6870650020F9
:1008C00070BD186E0226304318660120F8E77047A5
:1008D00070470000FFB581B004465C20005D0090C9
:1008E0000098022870D1029840281AD120688030E0
:1008F00000690007000F002807D1206EFF2701378D
:1009000038432066012005B0F0BD206880300069C2
:1009100003273F023840030A48275F43A06CC119F0
:1009200018E02068803080690007000F002806D199
:10093000206EFF270137384320660120E3E7206857
:100940008030806903273F023840030A48275F430D
:10095000E06CC1190127BF07086838405060506833
:10096000002805D1274F08683840800C106003E04C
:100970000868C000C008106001277F070868384079
:1009800090600868C00FC0071061091D088880B218
:10099000D0610F273F0408683840D06001273F0529
:1009A0000868384050617F000868384090617F27B0
:1009B0003F0608683840000E10620868C00F506299
:1009C000091D0E46002504E015E0775D04984755A3
:1009D0006D1CD068000C0C4F385CA842F5D802980A
:1009E000402803D120688030436102E020688030D5
:1009F000C361002087E7206E082738432066012066
:100A000081E700000000FC1F032B00087047F0B5D1
:100A100087B004462068006D072189020840074618
:100A20002068406D07402068006D4007400F069029
:100A30002068406D0699084006902068006D3821B6
:100A4000084005902068406D059908400590206891
:100A5000006DF1210904084004902068406D04995C
:100A6000084004902068006D072149040840039065
:100A70002068406D0399084003902068456D206808
:100A8000066D40203040800900280AD040202840D0
:100A90008009002805D04020216808652046FFF71E
:100AA000B5FFFF2001303040000A002817D0FF209A
:100AB00001302840000A002811D020688030806D65
:100AC000019020688030006E019908400190FF205D
:100AD0000130216808652046019900F053FA002F83
:100AE00005D0206807653946204600F04DFA069883
:100AF000002806D00698216808652046069900F06F
:100B000003FA0598002806D0059821680865204654
:100B1000059900F01DFA012040023040400A0028EB
:100B20000CD0012040022840400A002806D00120B5
:100B3000400221680865204600F027FA80203040F6
:100B4000C009002815D080202840C009002810D0F6
:100B500020688030406D029020688030C06D02991E
:100B6000084002908020216808652046029900F024
:100B70000AFA012040033040400B00280CD001202D
:100B800040032840400B002806D001204003216884
:100B90000865204600F0F5F90120C0033040C00B85
:100BA00000280CD00120C0032840C00B002806D02C
:100BB0000120C00321680865204600F0E1F901200A
:100BC00080033040800B00280DD001208003284096
:100BD000800B002807D00120800321680865206E63
:100BE0008021084320660398002806D003982168D6
:100BF000086520460399FFF76BFE0498002806D08D
:100C0000049821680865206E049908432066206EC8
:100C1000002802D02046FFF75AFE07B0F0BD0000C2
:100C200070B50446002C01D1012070BD85492068B3
:100C3000884200D100BF03210902A068884200D188
:100C400000BF5C20005D002805D100215D2001551A
:100C5000204600F0FBF82068806910218843216855
:100C6000886100F08BFA05460DE000F087FA401B22
:100C70000A2808D9206E01210843206603215C2040
:100C800001550120D1E72068806908210840082823
:100C9000EBD020688069012108432168886100F059
:100CA0006DFA05460DE000F069FA401B0A2808D9E4
:100CB000206E01210843206603215C20015501209C
:100CC000B3E720688069C007C00F0028EBD0206818
:100CD000806902210843216888615A492068884256
:100CE00002D1594960680860207C012806D120683B
:100CF0008069402188432168886105E02068806917
:100D00004021084321688861607C012807D1206860
:100D100080690121890308432168886106E0206811
:100D2000806901218903884321688861A07C0128AA
:100D300007D12068806901210903884321688861FF
:100D400006E0206880690121090308432168886161
:100D500020688069032109028843A168084321684B
:100D6000886120688069A42188432168886120689F
:100D700000691021884321680861E068012806D1D4
:100D800020688069042108432168886121E0E068C7
:100D900000281ED0E068022815D0206880698021D4
:100DA0000843216888612068006910210843216890
:100DB0000861E06803280CD120688069202108437D
:100DC0002168886105E02068806920210843216846
:100DD0008861207E401E4006E169491E09020843E1
:100DE000216A491E0843A18A491E09040843216853
:100DF000C86103210902A06888420FD1A06A401E81
:100E0000E16A491E09020843216B491E0901084392
:100E1000A18C491E090408432168C86020688030FD
:100E2000006CE16B08432168803108642046FFF7BD
:100E30004FFC0020A065206601215C2001550020A8
:100E4000F3E60000006400400065004010B59AB071
:100E50000446142115A8FFF74FFA4C2102A8FFF70A
:100E60004BFA27492068884247D10120400602906A
:100E70004014149002A800F047FA002801D0FFF7B0
:100E800023FC00BF1F48C06B0121090308431D4913
:100E9000C8630846C06B89140840019000BF00BFBA
:100EA00000BF1848406B01210843164948630846B3
:100EB000406BC007C00F019000BF00BF0320C002FD
:100EC000159002201690002017901890032019907A
:100ED00015A90520000700F059F800221146152039
:100EE00000F0DCF9152000F0C7F9002211461620A9
:100EF00000F0D4F9162000F0BFF91AB010BD0000C0
:100F0000006400400010024070B504460D460D48D4
:100F1000844215D16807400F002811D00A4B0B4AB4
:100F200040210848FFF7D6FC002804D1064A0749AB
:100F3000012001F073FD002207212046FFF70AFC83
:100F400070BD0000180000208C050020580500200E
:100F5000704701465C20405C01280BD102225C20D6
:100F6000425408688069400840000A689061002087
:100F700008667047086E0422104308660120F8E7EF
:100F800070477047704770477047704770B50346A9
:100F90000A460021DCE001268E4014683440002C13
:100FA00073D01579AD07AD0F012D04D01579AD07BC
:100FB000AD0F022D18D198684E000325B5400646A6
:100FC000AE4330464E00D568B54028439860586817
:100FD00001258D400646AE43304610265568354003
:100FE0002D098D40284358601579AD07AD0F032DAD
:100FF0000BD0D8684E000325B5400646AE433046B8
:101000004E009568B5402843D8601579AD07AD0FFF
:10101000022D15D1CD08AE001D462035A8594D072B
:10102000EE0E0F25B5400646AE4330464E07F60E8F
:101030001569B5402843CD08AD001E4620367051D5
:1010400018684E000325B5400646AE433046157974
:10105000AD07AD0F4E00B540284318600326360497
:1010600055683540002D72D03C4D8E08B600A85909
:101070008D07EE0E0F25B5400646AE4330460525DA
:101080002D07AB4202D1002515E060E0344DAB42A4
:1010900001D101250FE0334DAB4201D102250AE019
:1010A000314DAB4201D1032505E0304DAB4201D1BA
:1010B000042500E005258E07F60EB5402843274D90
:1010C0008E08B600A851254D603D28680546A54309
:1010D00028460126360555683540002D02D00546C4
:1010E000254328461D4D603D286068680546A54398
:1010F00028460126760555683540002D02D0054664
:1011000025432846154D603D6860144D20356868BC
:101110000546A54328460126760455683540002D2E
:1011200002D00546254328460C4D203568602868C6
:101130000546A54328460126360455683540002D4E
:1011400002D0054625432846044D20352860491C19
:101150001568CD40002D00D01DE770BD601802401D
:101160000004005000080050000C00500010005017
:10117000002A01D0816100E0816270470148006867
:101180007047000000000020034800680349097808
:101190004018014908607047000000200800002046
:1011A00010B5002408480068FF21013108430649B2
:1011B0000860032000F00AF8002801D0012401E0B3
:1011C00000F034F8204610BD00200240F8B5044677
:1011D00000251348007800281ED0114801787D2092
:1011E000C000FFF78BF8074639460E480068FFF746
:1011F00085F8064600F006FF00280BD1042C07D224
:1012000000222146401E00F049F80748046004E02F
:10121000012502E0012500E001252846F8BD000077
:10122000080000200C0000200400002008B500BFCA
:1012300010480068012108430E490860084600680C
:10124000C007C00F009000BF00BF00BF0948403872
:10125000C06B8905084307494039C8630846C06B1D
:1012600009040840009000BF00BF0320400200F0C6
:10127000BDFE08BD401002400146002909DB00BF49
:1012800000BFCB06DB0E01229A40034B1A6000BF61
:1012900000BF00BF7047000000E100E070B50446E9
:1012A0000D4616462946204601F0F6FA70BD0000AC
:1012B00070B5044611480068032149028843204361
:1012C0000E4908604815844216D10D490968062266
:1012D000514308460B49FFF711F8451C05E0002D66
:1012E00001D06D1E01E0032070BD0448406901215A
:1012F000890208408842F2D00020F5E700700040E3
:101300000C00002040420F00FEB5044600270020DC
:101310000290012149042068084088427BD10020C6
:101320000190F248C06BC902084000280ED100BFEE
:10133000EE48C06B0843ED49C8630846C06B09041A
:101340000840009000BF00BF01200190E8480068FD
:10135000FF2101310843E6490860FFF70FFF064609
:1013600006E0FFF70BFF801B022801D9032706E0E8
:10137000DF480068FF21013108400028F1D000BF9C
:10138000002F4BD1D9484030C569032109020D40D7
:10139000002D1AD0206CA84217D0D4484030C06924
:1013A00088430546D1484030C069012109040843FB
:1013B000CE494031C8610846C0690121090488430B
:1013C000CA494031C8610846C561E807C00F002816
:1013D00013D0FFF7D3FE064607E0FFF7CFFE801BD2
:1013E000C449884201D9032706E0C0484030C0699B
:1013F000022108400028F0D000BF002F0CD1BB48CC
:101400004030C069032109028843216C0843B74971
:101410004031C86103E00DE0029700E002970198B7
:10142000012806D1B148C06B012109078843AF49A3
:10143000C86300BF2078C007C00F002809D0AB48A0
:10144000403040698008800061680843A749403106
:101450004861022120680840022809D1A348403091
:1014600040690C218843A1680843A0494031486184
:10147000042120680840042809D19C484030406974
:1014800030218843E1680843984940314861102180
:101490002068084010280AD1944840304069032150
:1014A00089028843216908439049403148610121FC
:1014B00009032068084088420AD18C4840304069BE
:1014C0000321090288436169084388494031486122
:1014D000012149022068084088420AD183484030EF
:1014E0004069032189048843A16A08437F49403148
:1014F0004861012189022068084088420AD17B485E
:1015000040304069032109058843E16A084377496F
:101510004031486120212068084020280AD17348C2
:1015200040304069032109038843A16908436F499A
:101530004031486140212068084040280AD16B486A
:1015400040304069032189038843E16908436749C2
:10155000403148610121890320680840884213D145
:1015600062484030406980008008216B08435F4931
:10157000403148610906206B884205D15B48C0684C
:10158000891308435949C8600121C90420680840EB
:10159000884209D155484030406940218843616BF9
:1015A00008435249403148610121490520680840FB
:1015B000884214D14D484030406949008843A16BAE
:1015C00008434A494031486101218905A06B88429E
:1015D00005D14648C068890008434449C8600121D4
:1015E000890520680840884213D14048403040694E
:1015F00089008843E16B08433C494031486101213F
:101600000906E06B884204D13848C068084337496E
:10161000C8600121C90220680840884213D13348BC
:101620004030806980088000216A08432F4940319A
:101630008861206A012806D12C48C068012109046C
:1016400008432A49C86001214903206808408842AC
:1016500013D12648403080690C218843616A0843D1
:10166000224940318861606A042806D11F48C06859
:101670000121090408431D49C860012109062068A9
:101680000840884215D11948403080690321090378
:101690008843616C08431549403188610121490341
:1016A000606C884205D11148C068C90208430F49DF
:1016B000C8600121490620680840884214D10B48BF
:1016C00040308069032109028843A16C084307491F
:1016D000403188618915A06C884205D10348C068F3
:1016E000090408430149C8600298FEBD0010024089
:1016F000007000408813000070B504460D46002CB1
:1017000001D1012070BD6B4800684007400FA8421E
:1017100018D268480068C008C000284365490860BE
:10172000FFF72CFD064607E0FFF728FD801B624906
:10173000884201D90320E5E75E4800684007400F72
:10174000A842F1D1022120680840022815D10421C5
:1017500020680840042807D15848806807210903F9
:101760008843401855498860544880680F21090211
:101770008843A1680843514988602078C007C00F9A
:10178000002854D06068012808D14C480068012125
:101790004904084000282ED10120B3E760680228E0
:1017A00008D146480068012149060840002822D196
:1017B0000120A7E76068002808D14048006801219F
:1017C00089020840002816D101209BE760680328A1
:1017D00008D13A484030006A0221084000280AD166
:1017E00001208FE735484030C069022108400028B9
:1017F00001D1012086E731488068C008C0006168D7
:1018000008432E498860FFF7B9FC064607E0FFF75A
:10181000B5FC801B2849884201D9032072E727487C
:101820008068382108406168C9008842EFD12148AA
:1018300000684007400FA84218D91E480068C00839
:10184000C00028431B490860FFF798FC064607E0E4
:10185000FFF794FC801B1849884201D9032051E707
:10186000144800684007400FA842F1D104212068C5
:101870000840042808D111488068072109038843DB
:10188000E16808430D49886000F020F80B49896839
:101890000F2212021140090A8900094A515CC90647
:1018A000C90EC8400749086007480068FFF78EFC6A
:1018B00028E70000002002408813000000100240CA
:1018C0001C2B00080C00002004000020FEB5354849
:1018D00080683821084000280DD13248006809028C
:1018E0000840C10A0120884000902F480099FEF767
:1018F00005FD044654E02B4880683821084008283C
:1019000001D12A4C4CE02748806838210840102833
:1019100034D12448C0688607B60F2248C0687021B9
:1019200008400009401C0190022E0FD0032E0CD15C
:101930001E480199FEF7E2FC1A49C9687F2212028B
:101940001140090A484305460DE000BF16480199B9
:10195000FEF7D4FC1349C9687F2212021140090A1C
:101960004843054600BF00BF0E48C068400F471CF3
:1019700039462846FEF7C2FC044611E00948806853
:1019800038210840202801D1840209E005488068F8
:1019900038210840182802D17D24240200E00024C8
:1019A0002046FEBD001002400024F40000127A0020
:1019B000FEB50446002C01D10120FEBD2078C007F1
:1019C000C00F00286FD0F748876838210F40C068E3
:1019D0008607B60F102F01D1032E01D0082F0BD18F
:1019E000F048006801214904084000285BD0606885
:1019F000002858D10120E0E700BF012109046068F8
:101A0000884205D1E74800680843E649086021E0BC
:101A100005210904606888420ED1E248006801216E
:101A200089040843DF490860084600680121090469
:101A30000843DC4908600DE0DA4800680121090428
:101A40008843D84908600846006801218904884312
:101A5000D449086000BF6068002812D0FFF78EFBF1
:101A6000054606E0FFF78AFB401B642801D90320E6
:101A7000A3E7CC4800680121490408400028F1D0C0
:101A800011E0FFF77BFB054606E0FFF777FB401B05
:101A9000642801D9032090E7C24800680121490465
:101AA00008400028F1D1022120680840022873D1A3
:101AB000BC488068382108400746BA48C068860795
:101AC000B60F102F01D1022E01D0002F36D1B5480C
:101AD0000068012189020840002804D0E06800283D
:101AE00001D1012069E7AF4840687F21090288439E
:101AF000616909020843AB494860002F16D10846C6
:101B000000680721C902884321690843A549086084
:101B1000084600680722D2021040C20A0120904005
:101B20000146A148FEF7EAFBA0490860A04800680A
:101B3000FFF74CFB002849D001203EE7E068002871
:101B40002BD0984800680721C902884321690843BF
:101B5000944908600846006889150843914908605F
:101B6000FFF70CFB054606E0FFF708FB401B0228C9
:101B700001D9032021E78B48006801218902084030
:101B80000028F1D0874840687F21090288436169B5
:101B9000090208438349486018E082480068FF2131
:101BA000013188437F490860FFF7E8FA054606E0FF
:101BB000FFF7E4FA401B022801D90320FDE679482B
:101BC00000680121890208400028F1D1082120681D
:101BD0000840082849D173488068382108401828EF
:101BE0000BD170484030006A0221084000283CD0E8
:101BF000A069002839D10120DFE6A06900281AD0A9
:101C000068484030006A0121084366494031086253
:101C1000FFF7B4FA054606E0FFF7B0FA401B0228CA
:101C200001D90320C9E65F484030006A022108401C
:101C30000028F1D019E05B484030006A40084000BD
:101C4000584940310862FFF799FA054606E0FFF768
:101C500095FA401B022801D90320AEE651484030D6
:101C6000006A022108400028F1D1042120680840C0
:101C700004287CD1002001904A488068382108401F
:101C800020280BD147484030C06902210840002875
:101C90006ED0A06800286BD101208EE64148C06B51
:101CA000010F01208843002810D000BF3D48C06BC1
:101CB0000121090708433B49C8630846C06B090472
:101CC0000840009000BF00BF012001903948006823
:101CD000FF2101310840002816D13648006808432A
:101CE00034490860FFF74AFA054606E0FFF746FA6E
:101CF000401B022801D903205FE62E480068FF211F
:101D0000013108400028F1D000BFA068012808D1A7
:101D100024484030C0690121084322494031C8614C
:101D200020E0A06805280FD11E484030C06904217A
:101D300008431C494031C8610846C0690121084375
:101D400018494031C8610DE016484030C06941086B
:101D5000490014484030C161C069042188431149D9
:101D60004031C86100BFA068002816D001E040E003
:101D70003EE0FFF703FA054607E0FFF7FFF9401BD7
:101D80000D49884201D9032017E606484030C06952
:101D9000022108400028F0D01EE0FFF7EFF90546C9
:101DA00014E00000001002400024F4000C000020A9
:101DB000040000200070004088130000FFF7DEF9E7
:101DC000401B8649884201D90320F6E58448C06952
:101DD000022108400028F1D10198012808D180484B
:101DE0004038C06B0121090788437D494039C863E9
:101DF00000BF20212068084020283AD1E06900284F
:101E00001BD077484038006849040843744940397A
:101E10000860FFF7B3F9054606E0FFF7AFF9401B8E
:101E2000022801D90320C8E56D4840380068012127
:101E3000C90508400028F0D01BE069484038006818
:101E4000012189058843664940390860FFF796F902
:101E5000054606E0FFF792F9401B022801D903204E
:101E6000ABE55F48403800680121C90508400028FB
:101E7000F0D1206A00285CD0594840388068382169
:101E8000084010287CD0206A022853D1544840389A
:101E90000068012109068843514940390860FFF76D
:101EA0006DF9054606E0FFF769F9401B022801D9E4
:101EB000032082E54A48403800680121490608406D
:101EC0000028F0D1A16A606A0843E16A0902084368
:101ED000216B0843616B0843A16B084340494039BB
:101EE000C968404A114008433D494039C860084626
:101EF000006801210906084339494039086008464D
:101F0000C0680904084336494039C860FFF736F90C
:101F1000054606E0FFF732F9401B022801D90320ED
:101F20004BE52F4840380068012149060840002849
:101F3000F0D050E02A484038006801210906884363
:101F4000274940390860FFF719F9054606E0FFF711
:101F500015F9401B022801D903202EE520484038FE
:101F600000680121490608400028F0D11C4840388B
:101F7000C0681D4908401A494039C8602BE0FFE796
:101F8000206A012800D118E515484038C668B10715
:101F9000890F606A81421CD170203040A16A88425A
:101FA00017D17F2000023040E16A0902884210D137
:101FB0001F2040043040216B88420AD10720400690
:101FC0003040616B884204D1710F4907A06B814298
:101FD00001D00120F1E40020EFE4000088130000AC
:101FE000401002408C80C111FCFFFEEE04490968DC
:101FF0000322520291430143014A116070470000DD
:102000000000014070B504462546681E0949884213
:1020100001D901200CE0681E074948610321081F0F
:1020200000F03AFC00200449886107200861002084
:1020300070BD0000FFFFFF0000E000E000BFFEE712
:1020400010B51A481A490860002048600021184855
:102050008160C16001744174817401214161042176
:1020600081610C21C16103210162012141620421CE
:1020700081620C21C16203210163002141630221BD
:1020800081630021C163FEF7CBFD002801D0FEF77C
:102090001BFB002207210648FEF75CFB0448FEF705
:1020A00058FF002801D0FEF70FFB10BD0064004070
:1020B0001800002000B587B0142102A8FEF71CF913
:1020C00000BF1148406B012108430F49486308468F
:1020D000406BC007C00F019000BF00BF0022491530
:1020E00005200007FFF744F801204002029001207C
:1020F000039000200490059002A905200007FEF738
:1021000045FF07B000BD00000010024000BFFEE721
:1021100070470000F8B504460D4616460E4F00BF46
:102120003878002801D100F0CFF900BFEFF310801C
:102130000746012080F3108800BF00BF32462946C1
:10214000204600F00BF80090F8B280F3108800BF32
:1021500000BF0098F8BD00007C000020F7B582B0F9
:102160000746164603980190182078431B494018EB
:10217000009000984069002804D0012811D002285E
:1021800026D11EE0009800F0D7F90546B54201D2ED
:10219000002405E0344632460199009800F051FBD6
:1021A00018E0009800F0C8F90546B54201D228466B
:1021B00000E03046044622460199009800F041FBB9
:1021C00008E032460199009800F0FCFA044601E06C
:1021D000002400BF00BF204605B0F0BD94000020E1
:1021E0000FB438B5044606A800906A462046059903
:1021F00000F008F8054600200090284638BC08BCCE
:1022000004B01847F7B59AB00D46144602A81590C9
:1022100040201690002017901A98199000201890CE
:1022200000BF2E786D1C002E00D1E4E0252E79D160
:1022300000270120149000BF2E78232E12D02B2EC1
:102240000CD02D2E02D0302E10D103E001200743F8
:102250006D1C0EE0022007436D1C0AE004200743BA
:102260006D1C06E0082007436D1C02E0002014905E
:1022700000BF00BF14980028DED1129000BF2E7856
:10228000302E01DB392E00DD08E06D1C0A2112988A
:1022900048433146303940181290F0E700BF002023
:1022A00013902E782E2E11D16D1C00BF2E78302E5B
:1022B00001DB392E00DD08E06D1C0A21139848432C
:1022C0003146303940181390F0E700BF2E7800BF38
:1022D0006C2E01D0682E02D16D1C2E7800E000E03B
:1022E000F6E700BF702E63D008DC252E72D0582E82
:1022F00038D0632E09D0642E71D114E0732E40D0F3
:10230000752E1FD0782E6AD12BE02168081D206021
:10231000086814901498C0B2019015A8019900F0B3
:102320002FFA5DE05FE02168081D206008681490C6
:102330001298019700900A2215A8139B149900F097
:1023400009F94DE02168081D206008681490129872
:10235000019700900A2215A8139B149900F082F9A6
:102360003EE000BF2168081D2060086814901298A4
:1023700001970090102215A8139B149900F072F990
:102380002EE02168081D20600868019000BF0198B8
:1023900006780198401C0190002E00D106E03146DD
:1023A00015A800F0EDF918980028F0DA00BF17E042
:1023B0002168081D206008681490002008210B4641
:1023C00010220091019015A8149900F04BF907E034
:1023D00000E004E0252115A800F0D2F900E000BFDC
:1023E00000BF6D1C03E0314615A800F0C9F918982C
:1023F000002800DB15E700BF189800280BDD1798B0
:10240000002804D002A9179A1A98FFF783FE17999B
:1024100018984018189018981DB0F0BD704710B566
:10242000FEF7B2FE10BD00B593B03C2104A8FDF745
:1024300063FF002000900190029003900120400271
:10244000FEF736FF02200490C0010790002008909C
:102450004020099002200C9002210D9100210E9144
:1024600008210F91010410910721490611910107DC
:10247000129104A8FFF79CFA002801D0FEF724F976
:1024800007200090002001900120C002029000204F
:10249000039000216846FFF72FF9002801D0FEF7CE
:1024A00013F913B000BD704710B50248FEF7AFFA3C
:1024B00010BD00001800002010B50248FEF7A7FA72
:1024C00010BD00001800002070B5144CA821204653
:1024D000FDF712FF03202061606111A0A061134984
:1024E000E1610121890221620021A1626162E16250
:1024F0000BA020660E4961661021A16600212167AC
:10250000E1666167002505E00F20401B0949085C72
:1025100060556D1C102DF7D370BD00007C000020AD
:102520005465726D696E616C00000000240100202A
:10253000240500207C2B000810B501460A69CB68F1
:102540009A4204D88C68641EE41AA01801E0D41AD8
:10255000601E10BDFFB585B006460F460F9D0E9C50
:10256000002F01DA784200E0384603900120049001
:1025700007E007990398FDF7CBFE03900498401CF1
:102580000490079903988842F3DA049908988842DE
:1025900001D908980490002C06D0002F03DB0420FA
:1025A0002840042800D1641E02202840002802D0C0
:1025B0000898002815D0E807C00F002811D1002C7A
:1025C0000FD008E0641E2021304600F0D9F8F068F2
:1025D000002800DA04E0002C02D00498A042F1D3D5
:1025E00000BFF06800283ADB002F05DA7F422D217A
:1025F000304600F0C5F807E004202840042803D145
:102600002B21304600F0BCF8F068002827DB0220C0
:102610002840022818D1E807C00F002814D10898D4
:10262000002811D1002C0FD008E0641E3021304664
:1026300000F0A6F8F068002800DA04E0002C02D0D0
:102640000498A042F1D300BFF068002807DB019591
:10265000009439463046089B079A00F003F809B009
:10266000F0BD0000FFB585B0064617461D460E9C1E
:102670000698029001200390019007E039460298E5
:10268000FDF73CFE02900198401C01900298B84270
:10269000F4D20198854200D901950F98C007C00F68
:1026A00000281DD1002C1BD002210F9808400228C1
:1026B00004D1002D02D13020009001E020200090B4
:1026C00008E0641E3046009900F05AF8F0680028CF
:1026D00000DA04E0002C02D00198A042F1D300BF40
:1026E000F068002848DB0FE0012D01D96D1E08E0DD
:1026F00003990698FDF702FE04900498B84200D2B0
:1027000003E0039878430390EEE700BF00BF03990E
:102710000698FDF7F3FD0490039904984843069941
:10272000081A0690154A0498115C304600F028F803
:10273000F068002800DA07E039460398FDF7DEFD6F
:10274000039003980028E2D100BF0F98C007C00F84
:10275000002811D0002C0FD008E0641E2021304644
:1027600000F00EF8F068002800DA04E0002C02D037
:102770000198A042F1D300BF09B0F0BD8D2B000835
:1027800070B504460E46A568681C6168814206D390
:1027900020684655681CA060E068401CE0606168E5
:1027A000A06888420DD1A26821682069FFF7B2FCB9
:1027B000A168884203D00020C043E06001E000200F
:1027C000A06070BDF7B584B00446174600200390A2
:1027D000E56800BF206902900298A84203D90298D8
:1027E000401B461E04E0A1680298281A401C0E1ADD
:1027F000A068401BB04201D9304601E0A068401BF0
:102800000646BE4201D2304600E0384606466068C1
:1028100040190190324605990198FDF70EFD039885
:1028200080190390059880190590BF1BAD19A06809
:10283000A84200D10025E560002FCBD1039807B056
:10284000F0BDF7B582B004461546E668A068871B60
:10285000AF420AD96068801900902A46039900980F
:10286000FDF7EBFC7019E06014E0019760688019D7
:102870000090019A03990098FDF7DFFCE81B019096
:10288000606800900398C119019A0098FDF7D5FC83
:102890000198E06005B0F0BD10B5002819DB1A4AB8
:1028A00003231B02D21883089B00D2588307DC0E37
:1028B000FF23A3409A438B071B0E8407E40EA3401B
:1028C0001A43114B032424021B198408A4001A5133
:1028D00018E00E4A03071B0F083B9B089B00D258C9
:1028E0008307DC0EFF23A3409A438B071B0E84074C
:1028F000E40EA3401A43054B0407240F083CA40828
:10290000A4001A5110BD000000E100E01CED00E041
:1029100010B5064800210160416019208001FDF7D3
:102920005BFC024948606420488010BD1000002014
:1029300010B50446002C04D106A1FFF751FC01207C
:1029400010BD20786178884201D10120F8E700208D
:10295000F6E700007468652063697263756C5F62F6
:102960007566206973206E756C6C200D0A0000007E
:1029700010B50446002C04D108A1FFF731FC00205B
:1029800010BD61882278501CFDF7C2FC607881423E
:1029900001D10120F4E70020F2E70000746865200F
:1029A00063697263756C5F627566206973206E750A
:1029B0006C6C200D0A00000070B504460D46002C1A
:1029C00004D0002D02D06068002806D10EA100209E
:1029D000FFF706FC0020C04370BD2046FFF7C8FF8C
:1029E000002801D00020F7E721780901606840182D
:1029F00029464EC94EC061882278501CFDF788FCDC
:102A000021700120E8E70000707574206461746132
:102A1000206973206E756C6C200D0A00F0B585B0CE
:102A200007460C461646254628680090E8680002CE
:102A3000000E694608710822314601A80130FDF7F1
:102A4000FCFBE868082810D0002008E00022694656
:102A500009790B1801A90131CA54411CC8B2694651
:102A600009790822511A8142F0D869460248FFF7D5
:102A7000A3FF05B0F0BD00001000002070B50446B3
:102A80000D46002C01D0002D06D10EA10020FFF72D
:102A9000A7FB0020C04370BD2046FFF749FF002878
:102AA00001D00020F7E761780901606843180FCB77
:102AB0002E460FC661886278501CFDF729FC6170B4
:102AC0000120E8E77468652063697263756C5F6272
:102AD0007566206973206E756C6C200D0A0000000D
:102AE000FEF75EFBFFF79FFCFFF7E4FAFFF7A8FA9B
:102AF000FFF70EFF01E0FDF7C9FDFCE7081C3044BD
:102B0000586C800001020304050607080C10141815
:102B100020304000081C3044586C80000000000049
:102B200000000000000000000000000000000000A5
:102B30000000000000000000000000000100000094
:102B40000200000003000000040000000600000076
:102B5000070000000800000009000000000000005D
:102B60000000000000000000000000000100000064
:102B7000020000000300000004000000000000004C
:102B800000005454522052454747455300303132DB
:102B90003334353637383941424344454600000026
:102BA000C02B0008000000201800000000010008F1
:102BB000D82B000818000020E01800001C010008B5
:102BC0000000000004000000010000000024F400E8
:082BD0000000000000000000FD
:04000005080000BD32
:00000001FF
